:100000000C9440010C9468010C9468010C946801F4
:100010000C9468010C9468010C9468010C946801BC
:100020000C9468010C9468010C9468010C946801AC
:100030000C9468010C9468010C9468010C9468019C
:100040000C94A3080C9468010C9413090C94ED080B
:100050000C9468010C9468010C9468010C9468017C
:100060000C9468010C946801000000002300260035
:1000700029002D2D2D2D2D2D2D2D2D2D2D2D2D2DE1
:100080002D2D2D2D2D2D2D2D2D2D2D2D2D2D2D2DA0
:100090002D2D2D2D2D2D0025005265736F6C75743F
:1000A000696F6E3A20200025004D696E2056616C04
:1000B00075653A2020200025004D61782056616C3E
:1000C00075653A20202000556E6971756520494498
:1000D0003A20202000447269766572205665723A93
:1000E00020200053656E736F7220547970653A203A
:1000F0000048756D69646974792053656E736F7219
:10010000002D2D2D2D2D2D2D2D2D2D2D2D2D2D2D4C
:100110002D2D2D2D2D2D2D2D2D2D2D2D2D2D2D2D0F
:100120002D2D2D2D2D00C2B043005265736F6C75BF
:1001300074696F6E3A202000C2B043004D696E2092
:1001400056616C75653A20202000C2B043004D61B5
:10015000782056616C75653A20202000556E6971D3
:1001600075652049443A2020200044726976657202
:10017000205665723A20200053656E736F722054CA
:100180007970653A200054656D706572617475729E
:10019000652053656E736F72002D2D2D2D2D2D2D25
:1001A0002D2D2D2D2D2D2D2D2D2D2D2D2D2D2D2D7F
:1001B0002D2D2D2D2D2D2D2D2D2D2D2D2D0044486A
:1001C00054787820556E69666965642053656E734E
:1001D0006F72204578616D706C65004572726F7248
:1001E0002072656164696E672068756D6964697401
:1001F000792100250048756D69646974793A200099
:10020000C2B0430054656D70657261747572653A71
:1002100020004572726F722072656164696E67209A
:1002200074656D70657261747572652100000000FF
:1002300000240027002A0000000000250028002BD1
:100240000000000008000201000003040700000095
:100250000000000000040404040404040402020278
:1002600002020203030303030301020408102040F7
:100270008001020408102001020408102000450932
:1002800011241FBECFEFD8E0DEBFCDBF11E0A0E04C
:10029000B1E0E2E6FFE102C005900D92A036B107A1
:1002A000D9F722E0A0E6B1E001C01D92A433B20765
:1002B000E1F711E0C0E4D1E004C02197FE010E9403
:1002C000390CCF33D107C9F70E94BE090C94AF0F88
:1002D0000C940000CF93DF9390E0FC01E759FD4FB1
:1002E00024918B5A9D4FFC0184918823D1F090E09A
:1002F000880F991FFC01E35DFD4FA591B491FC01AE
:10030000E95CFD4FC591D491623071F49FB7F894C8
:100310003C91822F809583238C93E8812E2B288318
:100320009FBFDF91CF9108958FB7F894EC912E2B5A
:100330002C938FBFF6CF3FB7F894809165019091D1
:100340006601A0916701B091680126B5A89B05C020
:100350002F3F19F00196A11DB11D3FBFBA2FA92F44
:10036000982F8827BC01CD01620F711D811D911D41
:1003700042E0660F771F881F991F4A95D1F70895AD
:100380008F929F92AF92BF92CF92DF92EF92FF92A5
:100390006B017C010E949B014B015C01C114D104E3
:1003A000E104F104B9F00E949B01681979098A09F6
:1003B0009B09683E73408105910580F321E0C21AD4
:1003C000D108E108F10888EE880E83E0981EA11C90
:1003D000B11CE4CFFF90EF90DF90CF90BF90AF9033
:1003E0009F908F900895AF92BF92CF92DF92EF923D
:1003F000FF920F931F93CF93DF936C017B018B01CF
:10040000040F151FEB015E01AE18BF08C017D1071E
:1004100059F06991D601ED91FC910190F081E02DA8
:10042000C6010995892B79F7C501DF91CF911F91FD
:100430000F91FF90EF90DF90CF90BF90AF90089515
:10044000FC01538D448D252F30E0842F90E0821BDA
:10045000930B541710F0CF96089501970895FC015F
:10046000918D828D981761F0A28DAE0FBF2FB11DB7
:100470005D968C91928D9F5F9F73928F90E008950F
:100480008FEF9FEF0895FC01918D828D981731F0C9
:10049000828DE80FF11D858D90E008958FEF9FEF1D
:1004A0000895FC01918D228D892F90E0805C9F4FF3
:1004B000821B91098F73992708958DE691E00E9420
:1004C000510221E0892B09F420E0822F089580E079
:1004D00090E0892B29F00E945D0281110C940000AC
:1004E0000895FC01A48DA80FB92FB11DA35ABF4FC9
:1004F0002C91848D90E001968F739927848FA68923
:10050000B7892C93A089B1898C91837080648C9376
:10051000938D848D981306C00288F389E02D808125
:100520008F7D80830895EF92FF920F931F93CF9357
:10053000DF93EC0181E0888F9B8D8C8D98131AC01E
:10054000E889F989808185FF15C09FB7F894EE8905
:10055000FF896083E889F989808183708064808362
:100560009FBF81E090E0DF91CF911F910F91FF90AD
:10057000EF900895F62E0B8D10E00F5F1F4F0F7355
:100580001127E02E8C8D8E110CC00FB607FCFACF10
:10059000E889F989808185FFF5CFCE010E9471023B
:1005A000F1CFEB8DEC0FFD2FF11DE35AFF4FF082E1
:1005B0009FB7F8940B8FEA89FB8980818062CFCF47
:1005C0000F931F93CF93DF938C01D0E0C0E0F8012D
:1005D000EC0FFD1F6491662341F08DE691E00E94CF
:1005E0009302892B11F02196F2CFCE01DF91CF91AA
:1005F0001F910F910895CF93DF93EC01888D88238D
:10060000B9F0AA89BB89E889F9898C9185FD03C075
:10061000808186FD0DC00FB607FCF7CF8C9185FF5A
:10062000F2CF808185FFEDCFCE010E947102E9CF2C
:10063000DF91CF910895CF92DF92EF92FF92CF9307
:10064000DF93DC011796CC911797D0E06111DC2F76
:1006500018962C91189730E0220F331F28593F4FDE
:1006600050E040E0F90185919491FC01F080BA01DD
:1006700090E080E0EF2DEC23ED1310C04F5F5F4F53
:100680001D96CD90DD90ED90FC9050976C157D05FA
:100690008E059F0538F36FEF7FEFCB01DF91CF9190
:1006A000FF90EF90DF90CF9008958F929F92AF923E
:1006B000BF92CF92DF92EF92FF920F931F93CF934F
:1006C000DF93CDB7DEB7C054D1400FB6F894DEBF8C
:1006D0000FBECDBF2FB7F8944091690150916A01C8
:1006E00060916B0170916C012FBFFC010185128537
:1006F000238534856A017B01C01AD10AE20AF30A14
:1007000097018601003D174021053105B0F4FC0139
:100710008189C05CDE4F0FB6F894DEBF0FBECDBF3F
:10072000DF91CF911F910F91FF90EF90DF90CF90CD
:10073000BF90AF909F908F9008958C01FC014187EE
:100740005287638774871482138212821182108207
:1007500062E085810E946A0161E070E080E090E0E3
:100760000E94C00161E0F80185810E946A01F801E0
:10077000858190E0FC01EF5BFD4F2491FC01E7597E
:10078000FD4F3491FC01EB5AFD4FE491EE23D9F07B
:10079000222359F0233009F44CC008F03FC0213027
:1007A00009F44DC0223009F44EC0F0E0EE0FFF1FF7
:1007B000E95CFD4FA591B4918FB7F894EC91309519
:1007C0003E233C938FBFF80186818551823008F02B
:1007D00047C08BE291E10197F1F762E0F801858172
:1007E0000E946A01F801828990E08230910538F018
:1007F000880F991F880F991F05970197F1F7F894B3
:1008000060E0C8010E941B036F3F7F4F8F4F9F4FD7
:1008100071F5F801118A789480E07BCF2730B1F030
:100820002830D1F0243009F0C0CF809180008F7D36
:1008300003C0809180008F7780938000B6CF84B50D
:100840008F7784BDB2CF84B58F7DFBCF8091B00010
:100850008F778093B000A9CF8091B0008F7DF9CFC2
:1008600064E170E080E090E00E94C001B6CF61E0FA
:10087000C8010E941B036F3F7F4F8F4F9F4F49F26C
:10088000CE0101967C015E019FEBA91A9EEFB90A89
:10089000670160E0C8010E941B03F6016083718359
:1008A0008283938361E0C8010E941B03F601648385
:1008B000758386839783F8E0CF0ED11CAC14BD04FA
:1008C00041F7789430E020E0F70180809180A280A9
:1008D000B3804481558166817781FFEF8F169F0633
:1008E000AF06BF0631F04F3F8FEF58076807780714
:1008F00019F4F801118A90CFF90183E0F595E79595
:100900008A95E1F7E00FF11F8081880F8416950624
:10091000A606B706F0F080832F5F3F4FF8E0EF0E9A
:10092000F11C2832310581F6F80144812081818152
:10093000280F3327331F8281280F311D8381820FB7
:10094000932F911D99274817190699F681E0818BFD
:10095000E0CE8160E0CFFC0183898B3051F480E4EC
:1009600092E4AFE0B0E0FB0184A395A3A6A3B7A3F4
:10097000089580E894E8AEE1B0E0F5CF08950895D9
:10098000FC0101900020E9F73197AF01481B590B9A
:10099000BC018DE691E00C94F301CF93DF930E94AC
:1009A000E002EC0184E391E00E94C0048C0F9D1FE3
:1009B000DF91CF9108958F929F92AF92BF920F9344
:1009C0001F93CF93DF93CDB7DEB7A1970FB6F894FF
:1009D000DEBF0FBECDBF19A2423008F44AE08E013F
:1009E0000F5D1F4F842E912CB12CA12CA5019401D9
:1009F0000E94F80BE62FB901CA01EA30F4F4E05D79
:100A0000D801EE938D01232B242B252B79F790E031
:100A100080E0109719F0CD010E94C004A1960FB696
:100A2000F894DEBF0FBECDBFDF91CF911F910F9124
:100A3000BF90AF909F908F900895E95CE1CF4F9267
:100A40005F926F927F928F929F92AF92BF92CF925E
:100A5000DF92EF92FF920F931F93CF936B017C0174
:100A6000742EAC019B010E94760E882399F087E3D7
:100A700091E0CF911F910F91FF90EF90DF90CF9079
:100A8000BF90AF909F908F907F906F905F904F90AE
:100A90000C94C00446015701E894B7F82FEF3FEFDC
:100AA0004FE75FE7C501B4010E94760E81110DC0CA
:100AB0002FEF3FEF4FE75FE7C501B4010E94AC0C99
:100AC00018161CF48BE391E0D4CF2FEF3FEF4FE7E4
:100AD0005FE4C701B6010E94040E18161CF48FE3F0
:100AE00091E0C7CF2FEF3FEF4FE75FECC701B601B3
:100AF0000E94AC0C87FDF3CF20E030E0A901C701D4
:100B0000B6010E94AC0C10E000E087FF0AC06DE265
:100B10008DE691E00E9493028C01F7FAF094F7F8C9
:100B2000F094C0E060E070E080E09FE37C1641F06C
:100B300020E030E040E251E40E94B10CCF5FF6CFFC
:100B4000A70196010E94400C2B013C010E94230D3D
:100B50004B015C014AE00E94DB047C01E00EF11EC7
:100B6000CC23C1F1C501B4010E94520D9B01AC011F
:100B7000C301B2010E943F0C4B015C016EE28DE6A5
:100B800091E00E949302E80EF91EC15018F120E096
:100B900030E040E251E4C501B4010E94090E2B018E
:100BA0003C010E94230D4B01B12CA12C4AE0C50150
:100BB000B4010E94DB04E80EF91EC501B4010E94D5
:100BC000520D9B01AC01C301B2010E943F0C4B01CD
:100BD0005C01DBCFC701CF911F910F91FF90EF9088
:100BE000DF90CF90BF90AF909F908F907F906F904D
:100BF0005F904F900895CF92DF92EF92FF92CF9344
:100C0000DF936B017C01F7FE1FC06DE28DE691E082
:100C10000E949302EC0166277727CB016C197D09AE
:100C20008E099F094AE00E94DB04C80FD91F84E3A4
:100C300091E00E94C0048C0F9D1FDF91CF91FF9027
:100C4000EF90DF90CF9008954AE00E94DB04EC0122
:100C5000EECFCF92DF92EF92FF920F931F93CF933D
:100C6000DF93EB01FB01349620E2DF011D922A9510
:100C7000E9F744E250E060E070E0488359836A831A
:100C80007B83FC0145815681678170854C835D8340
:100C90006E837F834CE050E060E070E048875987C6
:100CA0006A877B872FB7F8944091690150916A0158
:100CB00060916B0170916C012FBF488B598B6A8BCF
:100CC0007B8B03811481C8010E945503882349F05E
:100CD000F80186818B3028F08D3040F085518230CC
:100CE00070F160E070E080EC9FE71BC0618170E014
:100CF00090E080E00E94540D2DEC3CEC4CEC5DE368
:100D00000E94090E6B017C01F801608170E090E0A7
:100D100080E00E94540D9B01AC01C701B6010E9406
:100D2000400C6C8B7D8B8E8B9F8B81E0DF91CF9104
:100D30001F910F91FF90EF90DF90CF900895608109
:100D4000718176276727762790E080E00E94520D18
:100D50002DEC3CEC4CEC5DE30E94090EE2CF8F924F
:100D60009F92AF92BF92EF92FF921F93CF93DF9328
:100D7000EB01FB01349620E2DF011D922A95E9F791
:100D800044E250E060E070E0488359836A837B83EB
:100D9000FC0145815681678170854C835D836E833C
:100DA0007F834DE050E060E070E0488759876A87B4
:100DB0007B872FB7F8944091690150916A01609147
:100DC0006B0170916C012FBF488B598B6A8B7B8BA9
:100DD000E380F480C7010E945503882341F0F701A6
:100DE00086818C3009F455C038F48B30E1F060E036
:100DF00070E080EC9FE73EC085518230C0F71281E1
:100E0000612F70E0762F662766277F778381682BB6
:100E100090E080E00E94520D2DEC3CEC4CEC5DE348
:100E20000E94090E51C0628170E090E080E00E9453
:100E3000520D4B015C01F701138117FF0AC0AC0191
:100E40009B0160E070E080E89FEB0E943F0C4B014B
:100E50005C011F70612F70E090E080E00E94540DF3
:100E60002DEC3CEC4CEC5DE30E94090EA5019401D5
:100E70000E94400C6C8B7D8B8E8B9F8B81E0DF9171
:100E8000CF911F91FF90EF90BF90AF909F908F9068
:100E900008951281612F70E090E080E00E94520D71
:100EA0004B015C01F70163816F7070E090E080E0BE
:100EB0000E94540D2DEC3CEC4CEC5DE30E94090EBD
:100EC000A50194010E94400C17FFD4CF9058D2CFB7
:100ED000CF93DF93EB01FC0183894BE050E069E4A1
:100EE00071E08C30C1F058F44BE050E063E471E005
:100EF0008B3089F04BE050E06BE571E00CC04BE0CB
:100F000050E06FE471E0853131F04BE050E065E591
:100F100071E0863179F7CE010E94A00F1B86DF9128
:100F2000CF9108950F931F93CF93DF938C01EB0123
:100F300088E2DB011D928A95E9F7F80183819481AB
:100F40000E94680781E090E0A0E0B0E08C879D8778
:100F5000AE87BF87F80185819681A781B085888B90
:100F6000998BAA8BBB8B8CE090E0A0E0B0E08C8BDF
:100F70009D8BAE8BBF8BBE01838194810E94AB049D
:100F8000D8011396ED91FC9183898C3009F441C00E
:100F900078F48B3009F1188E198E1A8E1B8E1C8EE8
:100FA0001D8E1E8E1F8E18A219A21AA21BA22CC063
:100FB0008551823080F780E090E0A8ECB2E4888F21
:100FC000998FAA8FBB8F1C8E1D8E1E8E1F8E8DEC4F
:100FD0009CECACECBDE314C080E090E0A0EAB2E48D
:100FE000888F998FAA8FBB8F80E090E0A0EAB1E450
:100FF0008C8F9D8FAE8FBF8F80E090E0A0EAB0E431
:1010000088A399A3AAA3BBA3DF91CF911F910F91AE
:10101000089580E090E0AEEBB2E4E2CF0F931F932F
:10102000CF93DF938C01EB0188E2DB011D928A955F
:10103000E9F7F801838194810E94680781E090E0DC
:10104000A0E0B0E08C879D87AE87BF87F8018581DF
:101050009681A781B085888B998BAA8BBB8B8DE0FD
:1010600090E0A0E0B0E08C8B9D8BAE8BBF8BBE017F
:10107000838194810E94AB04D8011396ED91FC9179
:1010800083898C3091F178F48B30B1F0188E198E01
:101090001A8E1B8E1C8E1D8E1E8E1F8E18A219A2DC
:1010A0001AA21BA21DC08531A9F1863179F780E013
:1010B00090E0AAEFB2E432C080E090E0A8E4B2E4AD
:1010C000888F998FAA8FBB8F1C8E1D8E1E8E1F8EB0
:1010D00080E090E0A0E0B0E488A399A3AAA3BBA31A
:1010E000DF91CF911F910F91089580E090E0A0E7EC
:1010F000B2E4888F998FAA8FBB8F80E090E0A0EA3E
:10110000B1EC8C8F9D8FAE8FBF8F80E090E0A0E020
:10111000BFE3E2CF80E090E0A0EAB2E4888F998F4D
:10112000AA8FBB8F80E090E0A0E2B2EC8C8F9D8F05
:10113000AE8FBF8F8DEC9CECACECBDE3CDCF0C94AF
:10114000170F0C94170F1F920F920FB60F921124C6
:101150002F933F938F939F93AF93BF938091690198
:1011600090916A01A0916B01B0916C013091640182
:1011700023E0230F2D3758F50196A11DB11D2093B3
:1011800064018093690190936A01A0936B01B0930D
:101190006C018091650190916601A0916701B09109
:1011A00068010196A11DB11D8093650190936601B0
:1011B000A0936701B0936801BF91AF919F918F9108
:1011C0003F912F910F900FBE0F901F90189526E81A
:1011D000230F0296A11DB11DD2CF1F920F920FB601
:1011E0000F9211242F933F934F935F936F937F93AD
:1011F0008F939F93AF93BF93EF93FF938DE691E00F
:101200000E947102FF91EF91BF91AF919F918F91D9
:101210007F916F915F914F913F912F910F900FBEF2
:101220000F901F9018951F920F920FB60F921124D6
:101230002F938F939F93EF93FF93E0917D01F09114
:101240007E018081E0918301F091840182FD1BC0C9
:101250009081809186018F5F8F7320918701821723
:1012600041F0E0918601F0E0E359FE4F958F8093C5
:101270008601FF91EF919F918F912F910F900FBE5B
:101280000F901F9018958081F4CFEDE6F1E0138266
:10129000128288EE93E0A0E0B0E084839583A68379
:1012A000B7838AE091E09183808385EC90E0958715
:1012B000848784EC90E09787868780EC90E0918B20
:1012C000808B81EC90E0938B828B82EC90E0958B0D
:1012D000848B86EC90E0978B868B118E128E138E0A
:1012E000148EAAE0B2E082E015968C9315978BE0FD
:1012F00016968C931697EBE6F2E0E4911796EC9332
:101300001797E7E5F2E0E4911896EC93189740E818
:101310005EE360E070E01D964D935D936D937C936A
:10132000509753968C9353978AE291E055969C93ED
:101330008E9354970A2E1B2E58961C920E921124AF
:1013400057974FEF5FEFBA0159964D935D936D93A9
:101350007C935C978CE191E05E969C938E935D9775
:101360000A2E1B2E91961C920E9211249097929603
:101370004D935D936D937C9395970895CF93DF93F1
:10138000CDB7DEB7E1970FB6F894DEBF0FBECDBF85
:10139000789484B5826084BD84B5816084BD85B550
:1013A000826085BD85B5816085BD80916E0081605C
:1013B00080936E0010928100809181008260809302
:1013C0008100809181008160809381008091800004
:1013D0008160809380008091B10084608093B1002F
:1013E0008091B00081608093B00080917A00846029
:1013F00080937A0080917A00826080937A00809155
:101400007A00816080937A0080917A00806880936E
:101410007A001092C100E0917D01F0917E0182E09E
:101420008083E0917901F0917A011082E0917B0153
:10143000F0917C018FEC808310928501E091810115
:10144000F091820186E08083E0917F01F09180013C
:10145000808180618083E0917F01F09180018081B3
:1014600088608083E0917F01F091800180818068B5
:101470008083E0917F01F091800180818F7D808366
:1014800062E080910F020E946A012FB7F894809168
:10149000690190916A01A0916B01B0916C012FBF1D
:1014A000805D9740A109B1098093130290931402C3
:1014B000A0931502B093160287E380931C028EEB73
:1014C00091E00E94CD04809120028BA78AE291E0F6
:1014D0009AA789A780912102909122029DA78CA7AB
:1014E0008091230290912402A0912502B0912602BE
:1014F0008EA79FA7A8ABB9ABBE016F5F7F4FCE0190
:1015000089960E940E0889E991E00E94CD0486E840
:1015100091E00E94CD0488E791E00E94E002CE01B4
:1015200001960E94C00484E391E00E94C0048AE610
:1015300091E00E94E0026D857E858F8598890E94EA
:10154000FB058CE591E00E94E00269897A898B892C
:101550009C890E94FB058EE491E00E94E002698D67
:101560007A8D8B8D9C8D42E00E941F058AE491E06C
:101570000E94CD048CE391E00E94E0026D8D7E8D8F
:101580008F8D98A142E00E941F0588E391E00E94A0
:10159000CD048AE291E00E94E00269A17AA18BA1C8
:1015A0009CA142E00E941F0586E291E00E94CD04CA
:1015B00081E091E00E94CD04809129028BA78CE10B
:1015C00091E09AA789A780912A0290912B029DA76A
:1015D0008CA780912C0290912D02A0912E02B091A7
:1015E0002F028EA79FA7A8ABB9ABBE016F5F7F4F3D
:1015F000CE0189960E94920781EF90E00E94CD046F
:1016000083EE90E00E94E002CE0101960E94C004A9
:1016100084E391E00E94C00485ED90E00E94E00226
:101620006D857E858F8598890E94FB0587EC90E00B
:101630000E94E00269897A898B899C890E94FB0556
:1016400089EB90E00E94E002698D7A8D8B8D9C8DF4
:1016500042E00E941F0587EB90E00E94CD0489EADA
:1016600090E00E94E0026D8D7E8D8F8D98A142E00A
:101670000E941F0587EA90E00E94CD0489E990E06E
:101680000E94E00269A17AA18BA19CA142E00E9484
:101690001F0587E990E00E94CD0482E790E00E9458
:1016A000CD046DA17EA18FA198A528EE33E040E086
:1016B00050E00E941A0C2093600130936101409326
:1016C0006201509363010AE211E08CE1E82E81E0AF
:1016D000F82E90E0C92E90E0D92E609160017091B3
:1016E000610180916201909163010E94C00180912B
:1016F00020028BA71AA709A78091210290912202AC
:101700009DA78CA78091230290912402A09125028D
:10171000B09126028EA79FA7A8ABB9ABBE016F5FA1
:101720007F4FCE0189960E94AF066D897E898F8991
:10173000988D9B01AC010E94760E882309F447C066
:1017400082E192E00E94CD04809129028BA7FAA643
:10175000E9A680912A0290912B029DA78CA78091E7
:101760002C0290912D02A0912E02B0912F028EA7F3
:101770009FA7A8ABB9ABBE016F5F7F4FCE01899623
:101780000E9429066D897E898F89988D9B01AC0105
:101790000E94760E811129C085EF91E00E94E0023F
:1017A0006D897E898F89988D42E00E941F0583EFA5
:1017B00091E00E94CD04C114D10409F48ECF0E949F
:1017C0005D02882309F489CF0E94000086CF84E05F
:1017D00092E00E94E0026D897E898F89988D42E0B7
:1017E0000E941F0580E092E0ADCF8BED91E0E1CF4C
:1017F000A1E21A2EAA1BBB1BFD010DC0AA1FBB1F15
:10180000EE1FFF1FA217B307E407F50720F0A21B86
:10181000B30BE40BF50B661F771F881F991F1A94F3
:1018200069F760957095809590959B01AC01BD011D
:10183000CF010895052E97FB1EF400940E94310CF1
:1018400057FD07D00E94F80B07FC03D04EF40C9410
:10185000310C50954095309521953F4F4F4F5F4F3C
:10186000089590958095709561957F4F8F4F9F4F0C
:101870000895EE0FFF1F0590F491E02D0994505844
:10188000BB27AA270E94570C0C94CA0D0E94BC0DBE
:1018900038F00E94C30D20F039F49F3F19F426F46C
:1018A0000C94B90D0EF4E095E7FB0C94B30DE92F01
:1018B0000E94DB0D58F3BA17620773078407950778
:1018C00020F079F4A6F50C94FD0D0EF4E0950B2EA6
:1018D000BA2FA02D0B01B90190010C01CA01A00182
:1018E0001124FF27591B99F0593F50F4503E68F1DD
:1018F0001A16F040A22F232F342F4427585FF3CF1E
:10190000469537952795A795F0405395C9F77EF4EE
:101910001F16BA0B620B730B840BBAF09150A1F037
:10192000FF0FBB1F661F771F881FC2F70EC0BA0FBD
:10193000621F731F841F48F4879577956795B79545
:10194000F7959E3F08F0B0CF9395880F08F0992740
:10195000EE0F9795879508950E948F0D08F481E00A
:1019600008950E94C50C0C94CA0D0E94C30D58F036
:101970000E94BC0D40F029F45F3F29F00C94B30D98
:1019800051110C94FE0D0C94B90D0E94DB0D68F3FF
:101990009923B1F3552391F3951B550BBB27AA2728
:1019A00062177307840738F09F5F5F4F220F331F62
:1019B000441FAA1FA9F335D00E2E3AF0E0E832D02A
:1019C00091505040E695001CCAF72BD0FE2F29D02D
:1019D000660F771F881FBB1F261737074807AB07FF
:1019E000B0E809F0BB0B802DBF01FF2793585F4F74
:1019F0003AF09E3F510578F00C94B30D0C94FE0D17
:101A00005F3FE4F3983ED4F3869577956795B79555
:101A1000F7959F5FC9F7880F911D9695879597F960
:101A20000895E1E0660F771F881FBB1F62177307D9
:101A30008407BA0720F0621B730B840BBA0BEE1FEE
:101A400088F7E09508950E94E30D88F09F5798F07D
:101A5000B92F9927B751B0F0E1F0660F771F881FB3
:101A6000991F1AF0BA95C9F714C0B13091F00E94CD
:101A7000FD0DB1E008950C94FD0D672F782F882798
:101A8000B85F39F0B93FCCF3869577956795B395F4
:101A9000D9F73EF490958095709561957F4F8F4F63
:101AA0009F4F0895E89409C097FB3EF49095809568
:101AB000709561957F4F8F4F9F4F9923A9F0F92F14
:101AC00096E9BB279395F695879577956795B79592
:101AD000F111F8CFFAF4BB0F11F460FF1BC06F5F78
:101AE0007F4F8F4F9F4F16C0882311F096E911C08A
:101AF000772321F09EE8872F762F05C0662371F0AB
:101B000096E8862F70E060E02AF09A95660F771FBE
:101B1000881FDAF7880F9695879597F90895990F9A
:101B20000008550FAA0BE0E8FEEF16161706E807A7
:101B3000F907C0F012161306E407F50798F0621BC8
:101B4000730B840B950B39F40A2661F0232B242B9D
:101B5000252B21F408950A2609F4A140A6958FEFBC
:101B6000811D811D089597F99F6780E870E060E00E
:101B700008959FEF80EC089500240A941616170626
:101B800018060906089500240A941216130614066E
:101B900005060895092E0394000C11F4882352F0D1
:101BA000BB0F40F4BF2B11F460FF04C06F5F7F4F89
:101BB0008F4F9F4F089557FD9058440F551F59F070
:101BC0005F3F71F04795880F97FB991F61F09F3F2A
:101BD00079F087950895121613061406551FF2CF53
:101BE0004695F1DF08C0161617061806991FF1CFA3
:101BF00086957105610508940895E894BB276627CA
:101C00007727CB0197F908950E948F0D08F48FEF85
:101C100008950E941C0E0C94CA0D0E94BC0D38F051
:101C20000E94C30D20F0952311F00C94B30D0C9479
:101C3000B90D11240C94FE0D0E94DB0D70F3959FDD
:101C4000C1F3950F50E0551F629FF001729FBB27B3
:101C5000F00DB11D639FAA27F00DB11DAA1F649F4F
:101C60006627B00DA11D661F829F2227B00DA11D02
:101C7000621F739FB00DA11D621F839FA00D611D88
:101C8000221F749F3327A00D611D231F849F600DA9
:101C9000211D822F762F6A2F11249F5750409AF0D2
:101CA000F1F088234AF0EE0FFF1FBB1F661F771F5E
:101CB000881F91505040A9F79E3F510580F00C9429
:101CC000B30D0C94FE0D5F3FE4F3983ED4F386957C
:101CD00077956795B795F795E7959F5FC1F7FE2BC9
:101CE000880F911D9695879597F908950E948F0DFD
:101CF000880B990B08950F931F93CF93DF93823036
:101D0000910510F482E090E0E0913202F09133020C
:101D100030E020E0B0E0A0E0309799F421153105E3
:101D200009F44AC0281B390B24303105D8F58A81C3
:101D30009B816115710589F1FB0193838283FE010B
:101D400011C0408151810281138148175907E0F089
:101D50004817590799F4109761F012960C9312974F
:101D600013961C933296CF01DF91CF911F910F9163
:101D700008950093320210933302F4CF21153105F8
:101D800051F04217530738F0A901DB019A01BD0158
:101D9000DF01F801C1CFEF01F9CF909333028093B7
:101DA0003202CDCFFE01E20FF31F819391932250B7
:101DB000310939832883D7CF209130023091310205
:101DC000232B41F420910201309103013093310221
:101DD000209330022091000130910101211531053D
:101DE00041F42DB73EB74091040150910501241BE9
:101DF000350BE0913002F0913102E217F307A0F4C5
:101E00002E1B3F0B2817390778F0AC014E5F5F4F50
:101E10002417350748F04E0F5F1F5093310240934F
:101E20003002819391939FCFF0E0E0E09CCFCF937D
:101E3000DF930097E9F0FC01329713821282A091A0
:101E40003202B0913302ED0130E020E01097A1F4AE
:101E500020813181820F931F209130023091310215
:101E60002817390709F061C0F0933102E09330027E
:101E7000DF91CF910895EA01CE17DF07E8F54A8197
:101E80005B819E0141155105B1F7E901FB83EA83AE
:101E900049915991C40FD51FEC17FD0761F480815A
:101EA00091810296840F951FE9019983888382812D
:101EB00093819B838A83F0E0E0E012968D919C9160
:101EC00013970097B9F52D913C911197CD0102968A
:101ED000820F931F20913002309131022817390769
:101EE00039F6309751F51092330210923202B093C6
:101EF0003102A0933002BCCFD383C2834081518191
:101F0000840F951FC817D90761F44E5F5F4F888112
:101F10009981480F591F518340838A819B81938304
:101F200082832115310509F0B0CFF0933302E0939D
:101F300032029ECFFD01DC01C0CF13821282D7CFC7
:101F4000FB01DC014150504048F001900D9200200F
:101F5000C9F701C01D9241505040E0F70895F89430
:021F6000FFCFB1
:101F6200000034028000000000009302F30120020E
:101F7200FB0251022F02430200000000BE049F0830
:101F8200BF042906920700000000BE04A108BF0496
:101F9200AF060E080D0A006E616E00696E66006F74
:101FA200766600444854313100444854313200448A
:101FB20048543231004448543232004448543F00BD
:00000001FF
