:100000000C9441010C9469010C9469010C946901F0
:100010000C9469010C9469010C9469010C946901B8
:100020000C9469010C9469010C9469010C946901A8
:100030000C9469010C9469010C9469010C94690198
:100040000C94390E0C9469010C94C30E0C949D0E03
:100050000C9469010C9469010C9469010C94690178
:100060000C9469010C9469012D2D2D2D2D2D2D2D14
:100070002D2D2D2D2D2D2D2D2D2D2D2D2D2D2D2DB0
:100080002D2D2D2D2D2D2D2D2D2D2D2D00250052DD
:1000900065736F6C7574696F6E3A20200025004D92
:1000A000696E2056616C75653A2020200025004D50
:1000B00061782056616C75653A20202000556E6984
:1000C0007175652049443A202020004472697665A4
:1000D00072205665723A20200053656E736F72204D
:1000E000547970653A200048756D696469747920A7
:1000F00053656E736F72002D2D2D2D2D2D2D2D2DF1
:100100002D2D2D2D2D2D2D2D2D2D2D2D2D2D2D2D1F
:100110002D2D2D2D2D2D2D2D2D2D2D00C2B043003B
:100120005265736F6C7574696F6E3A202000C2B0AF
:1001300043004D696E2056616C75653A20202000A1
:10014000C2B043004D61782056616C75653A20203D
:100150002000556E697175652049443A20202000C1
:10016000447269766572205665723A2020005365A4
:100170006E736F7220547970653A200054656D700B
:10018000657261747572652053656E736F72002DB0
:100190002D2D2D2D2D2D2D2D2D2D2D2D2D2D2D2D8F
:1001A0002D2D2D2D2D2D2D2D2D2D2D2D2D2D2D2D7F
:1001B0002D2D2D00444854787820556E6966696568
:1001C000642053656E736F72204578616D706C6545
:1001D000004572726F722072656164696E67206893
:1001E000756D69646974792100250048756D6964CD
:1001F0006974793A2000C2B0430054656D7065722D
:1002000061747572653A20004572726F7220726572
:100210006164696E672074656D7065726174757272
:1002200065210000000000230026002900000000D6
:1002300000240027002A0000000000250028002BD1
:10024000000404040404040404020202020202037F
:100250000303030303010204081020408001020489
:10026000081020010204081020000000080002010C
:1002700000000304070000000000000000002C0E36
:10028000FB0E11241FBECFEFD8E0DEBFCDBF11E0C3
:10029000A0E0B1E0ECE8F5E202C005900D92A036D6
:1002A000B107D9F722E0A0E6B1E001C01D92A43366
:1002B000B207E1F711E0C0E4D1E004C02197FE01EC
:1002C0000E94430FCF33D107C9F70E94940E0C94BC
:1002D000B9120C94000008958330B1F060F08730BB
:1002E000E9F0883009F1843021F5E0E8F0E0808120
:1002F0008F7D80830895813069F0823021F484B548
:100300008F7D84BD08950895E0E8F0E080818F77C7
:100310008083089584B58F7784BD0895E0EBF0E085
:1003200080818F7780830895E0EBF0E080818F7D7E
:10033000808308951F93CF93DF93282F30E0F90136
:10034000E759FD4F8491F901EB5AFD4F1491F901E2
:10035000EF5BFD4FC491CC23A9F0D62F811116C0BD
:10036000EC2FF0E0EE0FFF1FE95CFD4FA591B4917B
:100370008FB7F894D1110DC09C91E12FE095E9233E
:10038000EC938FBFDF91CF911F9108950E946C0174
:10039000E7CFEC91E12BEC93F4CFCF93DF9390E098
:1003A000FC01EB5AFD4F24918F5B9D4FFC01849122
:1003B000882319F190E0880F991FFC01E35DFD4F40
:1003C000A591B491FC01E95CFD4FC591D4916623E0
:1003D00049F06230A9F08FB7F894EC91E22BEC93DE
:1003E0008FBF0BC09FB7F8948C91E22FE0958E23BE
:1003F0008C938881E823E8839FBFDF91CF91089594
:100400009FB7F8943C91822F809583238C93E88149
:10041000E22BE8839FBFF1CF789484B5826084BDDE
:1004200084B5816084BD85B5826085BD85B58160F8
:1004300085BDEEE6F0E0808181608083E1E8F0E058
:100440001082808182608083808181608083E0E887
:10045000F0E0808181608083E1EBF0E08081846066
:100460008083E0EBF0E0808181608083EAE7F0E068
:1004700080818460808380818260808380818160CC
:1004800080838081806880831092C10008958230CB
:10049000910538F0880F991F880F991F05970197CC
:1004A000F1F708953FB7F89480912C0290912D02B6
:1004B000A0912E02B0912F0226B5A89B05C02F3F18
:1004C00019F00196A11DB11D3FBFBA2FA92F982F7A
:1004D0008827BC01CD01620F711D811D911D660F22
:1004E000771F881F991F660F771F881F991F089510
:1004F0008F929F92AF92BF92CF92DF92EF92FF9234
:100500006B017C010E9452024B015C011BC021E087
:10051000C21AD108E108F10888EE880E83E0981E1F
:10052000A11CB11CC114D104E104F10459F00E94D2
:100530005202681979098A099B09683E734081054E
:10054000910528F7C114D104E104F10459F7FF9093
:10055000EF90DF90CF90BF90AF909F908F900895D5
:100560002FB7F894609128027091290280912A0295
:1005700090912B022FBF08950895DC01ED91FC911D
:100580000190F081E02D09950895EF92FF920F936D
:100590001F93CF93DF938C01FB01D0E0C0E07F017C
:1005A0008FEFE81AF80A6491662369F0D801ED919B
:1005B000FC910190F081E02DC8010995892B19F07B
:1005C0002196F701ECCFCE01DF91CF911F910F91D2
:1005D000FF90EF900895CF92DF92EF92FF920F93EA
:1005E0001F93CF93DF938C01DB01D0E0C0E07A0151
:1005F00081E0E81AF108452BA1F0F8018081918192
:10060000FC01208131816D01FFEFCF1ADF0A6C916F
:10061000C801F9010995892B21F02196A701D6017E
:10062000E6CFCE01DF91CF911F910F91FF90EF9018
:10063000DF90CF900895019709F008956F3F7F4FA5
:10064000E1F7EAE8F1E01382128288EE93E0A0E09D
:10065000B0E084839583A683B78386E291E091839B
:10066000808385EC90E09587848784EC90E0978781
:10067000868780EC90E0918B808B81EC90E0938B6F
:10068000828B82EC90E0958B848B86EC90E0978B4C
:10069000868B118E128E138E148ECFCFFC01938D0C
:1006A000848D981720F4891B990B019708952FE3E7
:1006B00030E0291B3109820F932F911D0895FC0111
:1006C000918D828D981761F0A28DAE0FBF2FB11D55
:1006D0005D968C91928D9F5F9F73928F90E00895AD
:1006E0008FEF9FEF0895FC01918D828D981731F067
:1006F000828DE80FF11D858D90E008958FEF9FEFBB
:100700000895FC01218D30E0205C3F4F828DA901CE
:10071000481B5109CA018F73992708958AE891E00F
:100720000E94810321E0892B09F420E0822F0895A3
:10073000CF92DF92EF92FF921F93CF93DF93EC0162
:100740006A017B01122F60E079E08DE390E0A70160
:1007500096010E94020F2150310941095109569515
:10076000479537952795E889F98982E08083C114F8
:1007700081EED806E104F10421F0211580E138076B
:1007800098F0E889F989108260E874E88EE190E0D9
:10079000A70196010E94020F215031094109510918
:1007A0005695479537952795EC85FD853083EE85E1
:1007B000FF852083188EEC89FD891083EA89FB89E7
:1007C000808180618083EA89FB8980818860808361
:1007D000EA89FB89808180688083EA89FB8980813E
:1007E0008F7D8083DF91CF911F91FF90EF90DF90FD
:1007F000CF900895FC01A48DA80FB92FB11DA35A65
:10080000BF4F2C91848D90E001968F739078848FE8
:10081000A689B7892C93A089B1898C918370806453
:100820008C93938D848D981308950288F389E02D1D
:1008300080818F7D8083F8CF0F931F93CF93DF93B9
:10084000EC0181E0888F9B8D8C8D9817B1F0062F7D
:100850008B8D90E001968F739078182F8C8D81137B
:100860001EC00FB607FCFACFE889F989808185FFA1
:10087000F5CFCE010E94FA03F1CFE889F989808192
:1008800085FFE5CF9FB7F894EE89FF896083E889FB
:10089000F98980818370806480839FBF10C0EB8D55
:1008A000EC0FFD2FF11DE35AFF4F00839FB7F89423
:1008B0001B8FEA89FB898081806280839FBF81E0F2
:1008C00090E0DF91CF911F910F910895CF93DF9327
:1008D000EC01888D811104C00DC00FB607FE0DC05C
:1008E000EA89FB89808185FDF8CFA889B9898C9137
:1008F00086FFF3CFDF91CF910895808185FFF0CF00
:10090000E889F989808185FFEBCFCE010E94FA0347
:10091000E7CF80E090E0892B21F00E948E038111C7
:1009200001C008950E940000FCCFFF920F931F9317
:10093000CF93DF93DC01662339F11796FC9017976C
:1009400010E000E01896EC911897F0E0EE0FFF1F12
:10095000ED5DFD4FC591D491988117968C911797B5
:1009600098239F1113C0C801019630E020E01D9626
:100970004D915D916D917C91509704171507260755
:10098000370768F48C01DECFF12CDACFB80190E0A4
:1009900080E0DF91CF911F910F91FF9008956FEF4D
:1009A0007FEFCB01F6CF4F925F926F927F928F9243
:1009B0009F92AF92BF92CF92DF92EF92FF920F93EE
:1009C0001F93CF93DF93CDB7DEB7C054D1400FB69E
:1009D000F894DEBF0FBECDBF6C01162F0E94B0028F
:1009E000111113C0F60101851285238534854B0151
:1009F0005C01801A910AA20AB30A95018401003DA4
:100A000017402105310508F457C0F6016187728748
:100A1000838794871482138212821182108262E08B
:100A200085810E94CD0161E070E080E090E00E944D
:100A3000780261E0F60185810E94CD0160E0F60157
:100A400085810E949A01F601868185518230B0F538
:100A50008CE494E00E94470262E0F60185810E94E6
:100A6000CD01F601828990E00E944702F89460E08F
:100A7000C6010E9495046F3F7F4F8F4F9F4F29F50E
:100A8000F601118A789480E0C05CDE4F0FB6F894CE
:100A9000DEBF0FBECDBFDF91CF911F910F91FF90B1
:100AA000EF90DF90CF90BF90AF909F908F907F900E
:100AB0006F905F904F9008958189E6CF64E170E078
:100AC00080E090E00E947802C7CF61E0C6010E94FA
:100AD00095046F3F7F4F8F4F9F4F79F110E000E0FB
:100AE000003511056CF560E0C6010E949504F8011F
:100AF000EE0FFF1FEE0FFF1F88248394912C8C0EA6
:100B00009D1EE80DF91D60837183828393837801B4
:100B10002FEFE21AF20A61E0C6010E949504F70184
:100B2000EE0FFF1FEE0FFF1FE80DF91D60837183AD
:100B3000828393830E5F1F4FD3CFF601118AA2CF1A
:100B4000789430E020E008C0F601118A80E09CCF64
:100B5000079635C02F5F3F4F283231050CF044C057
:100B6000F901EE0FFF1FEE0FFF1FEE0FFF1F41E019
:100B700050E04C0F5D1FE40FF51F80809180A28034
:100B8000B380C901880F991F0196880F991F880F9C
:100B9000991F840F951FFC014080518062807380F3
:100BA000FFEF8F169F06AF06BF0671F24FEF441698
:100BB00054066406740641F2C90133234CF295953C
:100BC00087959595879595958795F601E80FF91F77
:100BD0004081440F408384149504A604B70408F0B0
:100BE000B9CF41604083B6CFF60144812081818135
:100BF000280F3327331F8281280F311D8381820FF5
:100C0000932F911D99274817190619F0118A80E032
:100C10003BCF81E0818B38CFCF92DF92EF92FF9272
:100C2000CF93DF93EC010E94D304882391F18E814E
:100C30008B30D0F18D3090F085518230A8F56881ED
:100C40008981762F682F90E080E00E945C102DEC67
:100C50003CEC4CEC5DE30E9413111FC0688170E016
:100C600090E080E00E945E106B017C01698170E081
:100C700090E080E00E945E102DEC3CEC4CEC5DE3DB
:100C80000E9413119B01AC01C701B6010E944A0FDB
:100C900004C060E070E080EC9FE7DF91CF91FF90AF
:100CA000EF90DF90CF90089560E070E080EC9FE7D8
:100CB000F4CFCB01BA0126E636E646EE5FE30E94AA
:100CC000131120E030E040E052E40E944A0F089502
:100CD000CF92DF92EF92FF920F931F93CF93DF9308
:100CE000EC01162F642F0E94D304882309F481C0DD
:100CF0008E818C3009F455C040F58B3009F086C0E8
:100D00006A8170E090E080E00E945C106B017C01E1
:100D10000B810023DCF10F70602F70E090E080E029
:100D20000E945E102DEC3CEC4CEC5DE30E94131134
:100D3000A70196010E944A0F112309F45EC0AB017E
:100D4000BC01CE010E94590658C08551823008F07E
:100D50005DC00A81602F70E0762F662766277F7757
:100D60008B81682B90E080E00E945C102DEC3CECC5
:100D70004CEC5DE30E9413110023CCF11123E9F147
:100D8000AB01BC01CE010E94590637C0AC019B01EA
:100D900060E070E080E89FEB0E94490F6B017C01EE
:100DA000BACF0A81602F70E090E080E00E945C1072
:100DB0006B017C016B816F7070E090E080E00E94BD
:100DC0005E102DEC3CEC4CEC5DE30E941311A7018E
:100DD00096010E944A0F002344F0112371F0AB01E9
:100DE000BC01CE010E94590608C09058F6CF905819
:100DF000C5CF60E070E080EC9FE7DF91CF911F915D
:100E00000F91FF90EF90DF90CF90089560E070E039
:100E100080EC9FE7F2CF1F93CF93DF93EC01162F67
:100E200062E08D810E94CD010E94B002605D77403A
:100E30008109910969877A878B879C871A8BDF9153
:100E4000CF911F910895DC0115966C931597169616
:100E50004C93169770E0FB01EB5AFD4FE491179607
:100E6000EC9317976F5B7D4FFB01649118966C9321
:100E7000189740E85EE360E070E01D964D935D9347
:100E80006D937C9350970895FC0188E191E09183E4
:100E900080837483638325833683478350870895D3
:100EA000FC018AE091E091838083748363832583CE
:100EB0003683478350870895FC0183898C30D9F0AD
:100EC00070F0853111F1863151F580E894E8AEE19A
:100ED000B0E0FB0184A395A3A6A3B7A308958B302C
:100EE000F1F480E492E4AFE0B0E0FB0184A395A3C9
:100EF000A6A3B7A3089580E894E8AEE1B0E0FB01B3
:100F000084A395A3A6A3B7A3089580E894E8AEE1CF
:100F1000B0E0FB0184A395A3A6A3B7A3089580E83E
:100F200094E8AEE1B0E0FB0184A395A3A6A3B7A328
:100F3000089567E30E940B0708954F925F926F92A6
:100F40007F929F92AF92BF92CF92DF92EF92FF92E9
:100F50000F931F93CF93DF93EC01942E0E942307EE
:100F60009B8AA8019701BE01CE0144960E945007BA
:100F7000A6019501BE01CE014D960E944407DF9166
:100F8000CF911F910F91FF90EF90DF90CF90BF9086
:100F9000AF909F907F906F905F904F9008950895CD
:100FA0000895AF92BF92CF92DF92EF92FF920F938C
:100FB0001F93019749F01F910F91FF90EF90DF90E1
:100FC000CF90BF90AF9008956F3F7F4FA1F7AA24B5
:100FD000AA94BA2C6501EE24EA94FE2C870126E03F
:100FE0004BE062E084E691E00E949D07E4CF089523
:100FF0000E94211208950E94F80708950E94F807A0
:101000000895DF92EF92FF920F931F93CF93DF9398
:10101000CDB7DEB7A1970FB6F894DEBF0FBECDBF38
:101020007C01CB01BA01D22E19A221E02D1520F4AA
:101030008E010F5D1F4F0EC00F2EFAE0DF2EF02D38
:10104000F7CFE95CD801EE938D016115710581053B
:10105000910579F02D2D30E050E040E00E94020F24
:10106000E62F622F732F842F952FEA3054F7E05D1F
:10107000E9CF1097F9F0FD0101900020E9F73197D1
:10108000AF014A1B5B0BD701ED91FC910280F3810C
:10109000E02DB801C7010995A1960FB6F894DEBFFF
:1010A0000FBECDBFDF91CF911F910F91FF90EF90B9
:1010B000DF90089590E080E0EFCF2115310549F4ED
:1010C000DC01ED91FC910190F081E02D642F0995F8
:1010D00008950E94010808959A01AB0170E060E054
:1010E0000E945D080895CF92DF92EF92FF920F93D6
:1010F0001F93CF93DF93EC016A017B01211531052A
:1011000081F4E881F9810190F081E02D642F099547
:10111000DF91CF911F910F91FF90EF90DF90CF90D3
:1011200008952A303105C1F4FF2024F02AE00E94FE
:101130000108EECF6DE20E94BD028C0144275527C5
:10114000BA014C195D096E097F092AE0CE010E949F
:101150000108800F911FDCCF0E940108D9CFDC016C
:10116000ED91FC910280F381E02D42E050E064E3D8
:1011700071E0099508950F931F93CF93DF93EC01CE
:101180000E9473088C01CE010E94AF08800F911F4E
:10119000DF91CF911F910F9108950F931F93CF93DC
:1011A000DF93EC010E94C5028C01CE010E94AF08C2
:1011B000800F911FDF91CF911F910F9108956115BD
:1011C000710581F0FB0101900020E9F73197AF0133
:1011D000461B570BDC01ED91FC910280F381E02D61
:1011E0000995089590E080E008954F925F926F9284
:1011F0007F92AF92BF92CF92DF92EF92FF920F93C6
:101200001F93CF93DF9300D000D01F92CDB7DEB7EE
:101210005C016A017B012D83AB019601CB01B60114
:101220000E948011811151C026013701E89477F89E
:1012300021E029832FEF3FEF4FE75FE7C301B201C2
:101240000E94801181110BC02FEF3FEF4FE75FE746
:10125000C301B2010E94B60F18160CF419828981DD
:101260008823D1F12FEF3FEF4FE75FE4C701B601CD
:101270000E940E1118160CF44AC02FEF3FEF4FE7F3
:101280005FECC701B6010E94B60F88230CF446C07C
:1012900020E030E0A901C701B6010E94B60F882303
:1012A0000CF443C0712C612C10E060E070E080E031
:1012B0009FE32D81121708F042C020E030E040E2A9
:1012C00051E40E94BB0F1F5FF4CF67E371E0C501DB
:1012D0000E94DF088C0106C06BE371E0C5010E942B
:1012E000DF088C01C8010F900F900F900F900F90A6
:1012F000DF91CF911F910F91FF90EF90DF90CF90F2
:10130000BF90AF907F906F905F904F9008956FE384
:1013100071E0C5010E94DF088C01E4CF6FE371E04A
:10132000C5010E94DF088C01DDCF6DE2C5010E947E
:10133000BD023C01F7FAF094F7F8F094B5CF9B01A9
:10134000AC01C701B6010E944A0F6B017C010E94EB
:101350002D1069837A838B839C830E945C109B0190
:10136000AC01C701B6010E94490F6B017C012AE064
:1013700030E049815A816B817C81C5010E945D0802
:101380008301080F191F8D8181112BC02D812150E0
:1013900029838D81882309F4A5CF20E030E040E245
:1013A00051E4C701B6010E9413112B013C010E94B8
:1013B0002D106B014AE050E0C5010E946C08080F37
:1013C000191FB60190E080E00E945C109B01AC0107
:1013D000C301B2010E94490F6B017C0129812D8359
:1013E000D5CF6EE2C5010E94BD02080F191FCECFF6
:1013F0000E94F50808950F931F93CF93DF93EC019C
:101400000E94DF088C01CE010E94AF08800F911F5F
:10141000DF91CF911F910F9108950F931F93CF9359
:10142000DF938C01EB01FB01349680E2DF011D921A
:101430008A95E9F784E290E0A0E0B0E088839983A0
:10144000AA83BB83F80185819681A781B0858C83AF
:101450009D83AE83BF838CE090E0A0E0B0E08887FE
:101460009987AA87BB870E94B002688B798B8A8B89
:101470009B8B60E0D80113968D919C910E940C0685
:101480006C8B7D8B8E8B9F8B81E0DF91CF911F9139
:101490000F9108950F931F93CF93DF938C01EB016E
:1014A000FB01349680E2DF011D928A95E9F784E220
:1014B00090E0A0E0B0E088839983AA83BB83F80121
:1014C00085819681A781B0858C839D83AE83BF8300
:1014D0008DE090E0A0E0B0E088879987AA87BB877D
:1014E0000E94B002688B798B8A8B9B8B40E060E016
:1014F000D80113968D919C910E9468066C8B7D8B10
:101500008E8B9F8B81E0DF91CF911F910F9108957A
:10151000CF93DF93CDB7DEB7E6970FB6F894DEBF73
:101520000FBECDBF60916001709161018091620139
:10153000909163010E947802E4E6F1E086898C874D
:101540008AE091E09B878A878789908D9E878D8727
:10155000818D928DA38DB48D8F87988BA98BBA8B3B
:10156000BE016D5E7F4FCE010A960E944A0A6FA1AE
:1015700078A589A59AA59B01AC010E9480118111D3
:101580005AC06AEF71E08AE891E00E94C5024FA15B
:1015900058A569A57AA522E030E08AE891E00E948A
:1015A000F80966EF71E08AE891E00E94CD08E4E670
:1015B000F1E0878D8B8388E191E09A83898380A114
:1015C00091A19D838C8382A193A1A4A1B5A18E83B7
:1015D0009F83A887B987BE016D5E7F4FCE010196BC
:1015E0000E940D0A6FA178A589A59AA59B01AC015F
:1015F0000E948011811126C06BEE71E08AE891E0B3
:101600000E94C5024FA158A569A57AA522E030E045
:101610008AE891E00E94F80969EE71E08AE891E0B9
:101620000E94CD08E6960FB6F894DEBF0FBECDBF80
:10163000DF91CF91089568E072E08AE891E00E941E
:10164000CD08B5CF61ED71E08AE891E00E94CD0848
:10165000E9CFCF93DF93EB01FC0183898C30D1F08C
:1016600060F08531F9F0863129F54BE050E065E511
:1016700071E0CE010E94AA1209C08B30D9F44BE070
:1016800050E063E471E0CE010E94AA121B86DF9154
:10169000CF9108954BE050E069E471E0CE010E94E3
:1016A000AA12F4CF4BE050E06FE471E0CE010E944B
:1016B000AA12ECCF4BE050E06BE571E0CE010E9446
:1016C000AA12E4CF0F931F93CF93DF938C01EB010A
:1016D00088E2DB011D928A95E9F7F8018381948104
:1016E0000E94290B81E090E0A0E0B0E08C879D870C
:1016F000AE87BF87F80185819681A781B085888BE9
:10170000998BAA8BBB8B8CE090E0A0E0B0E08C8B37
:101710009D8BAE8BBF8BBE01838194810E945C0741
:10172000D8011396ED91FC9183898C30E1F1D8F0CA
:10173000853109F451C0863109F063C080E090E042
:10174000A8ECB2E4888F998FAA8FBB8F1C8E1D8E58
:101750001E8E1F8E8DEC9CECACECBDE388A399A390
:10176000AAA3BBA31BC08B3009F04BC080E090E064
:10177000A0EAB2E4888F998FAA8FBB8F80E090E0B7
:10178000A0EAB1E48C8F9D8FAE8FBF8F80E090E098
:10179000A0EAB0E488A399A3AAA3BBA3DF91CF9149
:1017A0001F910F91089580E090E0AEEBB2E4888F36
:1017B000998FAA8FBB8F80E090E0A0EAB1E48C8F74
:1017C0009D8FAE8FBF8F80E090E0A0EAB0E488A349
:1017D00099A3AAA3BBA3E2CF80E090E0A8ECB2E477
:1017E000888F998FAA8FBB8F1C8E1D8E1E8E1F8E89
:1017F0008DEC9CECACECBDE388A399A3AAA3BBA39E
:10180000CDCF188E198E1A8E1B8E1C8E1D8E1E8E9D
:101810001F8E18A219A21AA21BA2C0CF0F931F934A
:10182000CF93DF938C01EB0188E2DB011D928A9557
:10183000E9F7F801838194810E94290B81E090E00F
:10184000A0E0B0E08C879D87AE87BF87F8018581D7
:101850009681A781B085888B998BAA8BBB8B8DE0F5
:1018600090E0A0E0B0E08C8B9D8BAE8BBF8BBE0177
:10187000838194810E945C07D8011396ED91FC91BD
:1018800083898C30E1F1F8F0853109F451C086315B
:1018900009F067C080E090E0AAEFB2E4888F998FEA
:1018A000AA8FBB8F80E090E0A0E2B2EC8C8F9D8F7E
:1018B000AE8FBF8F8DEC9CECACECBDE388A399A3FD
:1018C000AAA3BBA317C08B3009F04BC080E090E007
:1018D000A8E4B2E4888F998FAA8FBB8F1C8E1D8ECF
:1018E0001E8E1F8E80E090E0A0E0B0E488A399A354
:1018F000AAA3BBA3DF91CF911F910F91089580E020
:1019000090E0A0E7B2E4888F998FAA8FBB8F80E028
:1019100090E0A0EAB1EC8C8F9D8FAE8FBF8F80E0FE
:1019200090E0A0E0BFE388A399A3AAA3BBA3E2CF62
:1019300080E090E0A0EAB2E4888F998FAA8FBB8FF5
:1019400080E090E0A0E2B2EC8C8F9D8FAE8FBF8FD5
:101950008DEC9CECACECBDE388A399A3AAA3BBA33C
:10196000C9CF188E198E1A8E1B8E1C8E1D8E1E8E40
:101970001F8E18A219A21AA21BA2BCCF0F931F93ED
:10198000CF93DF93CDB7DEB7EA970FB6F894DEBFFB
:101990000FBECDBF26E040E855E260E070E08AE887
:1019A00091E00E94980384E691E00E94990764EB1D
:1019B00071E08AE891E00E94CD0804E611E0F801A8
:1019C00086898C878AE091E09B878A878789908DBA
:1019D0009E878D87818D928DA38DB48D8F87988BF7
:1019E000A98BBA8BBE016D5E7F4FCE010A960E9415
:1019F0000E0C6FE871E08AE891E00E94CD086CE778
:101A000071E08AE891E00E94CD086EE671E08AE814
:101A100091E00E94C502BE016D5E7F4F8AE891E0B1
:101A20000E94FB0960E671E08AE891E00E94C5022D
:101A30004F8D58A169A17AA12AE030E08AE891E0AF
:101A40000E94BB0862E571E08AE891E00E94C5024D
:101A50004BA15CA16DA17EA12AE030E08AE891E073
:101A60000E94BB0864E471E08AE891E00E94C5022C
:101A70004BA55CA56DA57EA522E030E08AE891E04B
:101A80000E94F80960E471E08AE891E00E94CD08C4
:101A900062E371E08AE891E00E94C5024FA558A96F
:101AA00069A97AA922E030E08AE891E00E94F80969
:101AB0006EE271E08AE891E00E94CD0860E271E098
:101AC0008AE891E00E94C5024BA95CA96DA97EA994
:101AD00022E030E08AE891E00E94F8096CE171E0D0
:101AE0008AE891E00E94CD0867EF70E08AE891E013
:101AF0000E94CD08F801878D8B8388E191E09A835D
:101B0000898380A191A19D838C8382A193A1A4A1AB
:101B1000B5A18E839F83A887B987BE016D5E7F4F75
:101B2000CE0101960E94620B67EE70E08AE891E0B8
:101B30000E94CD0869ED70E08AE891E00E94C5023C
:101B4000BE016D5E7F4F8AE891E00E94FB096BEC5D
:101B500070E08AE891E00E94C5024F8D58A169A10A
:101B60007AA12AE030E08AE891E00E94BB086DEBA0
:101B700070E08AE891E00E94C5024BA15CA16DA1D2
:101B80007EA12AE030E08AE891E00E94BB086FEA7B
:101B900070E08AE891E00E94C5024BA55CA56DA5A6
:101BA0007EA522E030E08AE891E00E94F8096DEA23
:101BB00070E08AE891E00E94CD086FE970E08AE861
:101BC00091E00E94C5024FA558A969A97AA922E00F
:101BD00030E08AE891E00E94F8096DE970E08AE857
:101BE00091E00E94CD086FE870E08AE891E00E94E1
:101BF000C5024BA95CA96DA97EA922E030E08AE864
:101C000091E00E94F8096DE870E08AE891E00E9496
:101C1000CD0868E670E08AE891E00E94CD086FA9DF
:101C200078AD89AD9AAD28EE33E040E050E00E94F7
:101C3000240F20936001309361014093620150931F
:101C40006301EA960FB6F894DEBF0FBECDBFDF91F9
:101C5000CF911F910F9108956FEF7FEF81E090E09A
:101C60000E941B036FEF7FEF81E090E00E94D1079D
:101C700008951F920F920FB60F9211240F931F9386
:101C80002F933F934F935F936F937F938F939F9384
:101C9000AF93BF93009128021091290220912A024C
:101CA00030912B0290912702B901A8014F5F5F4F3D
:101CB0006F4F7F4F83E0890F8D3740F086E8890FA3
:101CC000B901A8014E5F5F4F6F4F7F4F809327028E
:101CD000409328025093290260932A0270932B02AA
:101CE00080912C0290912D02A0912E02B0912F0292
:101CF0000196A11DB11D80932C0290932D02A093FB
:101D00002E02B0932F02BF91AF919F918F917F913F
:101D10006F915F914F913F912F911F910F910F9074
:101D20000FBE0F901F9018950E940C020E94BE0CCF
:101D30000E94880A0E948904FBCF1F920F920FB65F
:101D40000F9211242F933F934F935F936F937F9341
:101D50008F939F93AF93BF93EF93FF938AE891E0A4
:101D60000E94FA03FF91EF91BF91AF919F918F91E4
:101D70007F916F915F914F913F912F910F900FBE87
:101D80000F901F9018951F920F920FB60F9211246B
:101D90002F938F939F93AF93BF93EF93FF93E09114
:101DA0009A01F0919B01808182FD14C0EAE8F1E084
:101DB000A689B7892C91818D8F5F8F73928D89173A
:101DC00071F0DF01E18DF0E0E657FE4F258F599667
:101DD0008C9305C0E091A001F091A1018081FF9159
:101DE000EF91BF91AF919F918F912F910F900FBE67
:101DF0000F901F9018956FEF7FEF90E080E00E94AA
:101E0000D1070895A1E21A2EAA1BBB1BFD010DC02C
:101E1000AA1FBB1FEE1FFF1FA217B307E407F5079A
:101E200020F0A21BB30BE40BF50B661F771F881F76
:101E3000991F1A9469F760957095809590959B010C
:101E4000AC01BD01CF010895052E97FB1EF400944F
:101E50000E943B0F57FD07D00E94020F07FC03D0E2
:101E60004EF40C943B0F50954095309521953F4F83
:101E70004F4F5F4F089590958095709561957F4F76
:101E80008F4F9F4F0895EE0FFF1F0590F491E02DA7
:101E900009945058BB27AA270E94610F0C94D410B4
:101EA0000E94C61038F00E94CD1020F039F49F3FF8
:101EB00019F426F40C94C3100EF4E095E7FB0C948F
:101EC000BD10E92F0E94E51058F3BA176207730797
:101ED0008407950720F079F4A6F50C9407110EF409
:101EE000E0950B2EBA2FA02D0B01B90190010C012A
:101EF000CA01A0011124FF27591B99F0593F50F442
:101F0000503E68F11A16F040A22F232F342F442799
:101F1000585FF3CF469537952795A795F040539591
:101F2000C9F77EF41F16BA0B620B730B840BBAF061
:101F30009150A1F0FF0FBB1F661F771F881FC2F7CC
:101F40000EC0BA0F621F731F841F48F487957795E0
:101F50006795B795F7959E3F08F0B0CF9395880F9A
:101F600008F09927EE0F9795879508950E9499108C
:101F700008F481E008950E94CF0F0C94D4100E94C1
:101F8000CD1058F00E94C61040F029F45F3F29F0B0
:101F90000C94BD1051110C9408110C94C3100E94A4
:101FA000E51068F39923B1F3552391F3951B550B75
:101FB000BB27AA2762177307840738F09F5F5F4F1C
:101FC000220F331F441FAA1FA9F335D00E2E3AF05B
:101FD000E0E832D091505040E695001CCAF72BD073
:101FE000FE2F29D0660F771F881FBB1F26173707C4
:101FF0004807AB07B0E809F0BB0B802DBF01FF27F6
:1020000093585F4F3AF09E3F510578F00C94BD1005
:102010000C9408115F3FE4F3983ED4F386957795CE
:102020006795B795F7959F5FC9F7880F911D9695AE
:10203000879597F90895E1E0660F771F881FBB1F0A
:10204000621773078407BA0720F0621B730B840BB7
:10205000BA0BEE1F88F7E09508950E94ED1088F006
:102060009F5798F0B92F9927B751B0F0E1F0660F5C
:10207000771F881F991F1AF0BA95C9F714C0B1309D
:1020800091F00E940711B1E008950C940711672F99
:10209000782F8827B85F39F0B93FCCF386957795CC
:1020A0006795B395D9F73EF49095809570956195B5
:1020B0007F4F8F4F9F4F0895E89409C097FB3EF4E0
:1020C00090958095709561957F4F8F4F9F4F992385
:1020D000A9F0F92F96E9BB279395F6958795779503
:1020E0006795B795F111F8CFFAF4BB0F11F460FFC3
:1020F0001BC06F5F7F4F8F4F9F4F16C0882311F01B
:1021000096E911C0772321F09EE8872F762F05C02E
:10211000662371F096E8862F70E060E02AF09A95C9
:10212000660F771F881FDAF7880F9695879597F9BE
:102130000895990F0008550FAA0BE0E8FEEF161658
:102140001706E807F907C0F012161306E407F507AB
:1021500098F0621B730B840B950B39F40A2661F01F
:10216000232B242B252B21F408950A2609F4A140C2
:10217000A6958FEF811D811D089597F99F6780E8CF
:1021800070E060E008959FEF80EC089500240A94C9
:102190001616170618060906089500240A94121642
:1021A0001306140605060895092E0394000C11F475
:1021B000882352F0BB0F40F4BF2B11F460FF04C022
:1021C0006F5F7F4F8F4F9F4F089557FD9058440F7B
:1021D000551F59F05F3F71F04795880F97FB991F86
:1021E00061F09F3F79F08795089512161306140643
:1021F000551FF2CF4695F1DF08C0161617061806D0
:10220000991FF1CF86957105610508940895E894AA
:10221000BB2766277727CB0197F908950E9499106D
:1022200008F48FEF08950E9426110C94D4100E9498
:10223000C61038F00E94CD1020F0952311F00C94B8
:10224000BD100C94C31011240C9408110E94E510C9
:1022500070F3959FC1F3950F50E0551F629FF001F9
:10226000729FBB27F00DB11D639FAA27F00DB11D12
:10227000AA1F649F6627B00DA11D661F829F22279B
:10228000B00DA11D621F739FB00DA11D621F839F22
:10229000A00D611D221F749F3327A00D611D231FF8
:1022A000849F600D211D822F762F6A2F11249F5746
:1022B00050409AF0F1F088234AF0EE0FFF1FBB1F49
:1022C000661F771F881F91505040A9F79E3F510508
:1022D00080F00C94BD100C9408115F3FE4F3983E1D
:1022E000D4F3869577956795B795F795E7959F5FB2
:1022F000C1F7FE2B880F911D9695879597F9089544
:102300000E949910880B990B08950F931F93CF93F8
:10231000DF938230910510F482E090E0E091320288
:10232000F091330230E020E0B0E0A0E0309799F483
:102330002115310509F44AC0281B390B2430310519
:10234000D8F58A819B816115710589F1FB01938321
:102350008283FE0111C0408151810281138148179F
:102360005907E0F04817590799F4109761F0129651
:102370000C93129713961C933296CF01DF91CF9155
:102380001F910F9108950093320210933302F4CFFE
:102390002115310551F04217530738F0A901DB012F
:1023A0009A01BD01DF01F801C1CFEF01F9CF909390
:1023B000330280933202CDCFFE01E20FF31F8193EF
:1023C00091932250310939832883D7CF209130024D
:1023D00030913102232B41F420910201309103010D
:1023E000309331022093300220910001309101019D
:1023F0002115310541F42DB73EB7409104015091AC
:102400000501241B350BE0913002F0913102E217F7
:10241000F307A0F42E1B3F0B2817390778F0AC0107
:102420004E5F5F4F2417350748F04E0F5F1F5093E4
:10243000310240933002819391939FCFF0E0E0E02E
:102440009CCFCF93DF930097E9F0FC013297138282
:102450001282A0913202B0913302ED0130E020E00F
:102460001097A1F420813181820F931F20913002B7
:10247000309131022817390709F061C0F093310219
:10248000E0933002DF91CF910895EA01CE17DF0784
:10249000E8F54A815B819E0141155105B1F7E901DB
:1024A000FB83EA8349915991C40FD51FEC17FD07AF
:1024B00061F4808191810296840F951FE9019983CF
:1024C0008883828193819B838A83F0E0E0E0129687
:1024D0008D919C9113970097B9F52D913C9111978F
:1024E000CD010296820F931F20913002309131026C
:1024F0002817390739F6309751F5109233021092A8
:102500003202B0933102A0933002BCCFD383C28396
:1025100040815181840F951FC817D90761F44E5F20
:102520005F4F88819981480F591F518340838A8169
:102530009B81938382832115310509F0B0CFF093FD
:102540003302E09332029ECFFD01DC01C0CF138243
:102550001282D7CFFB01DC014150504048F001907E
:102560000D920020C9F701C01D9241505040E0F784
:10257000089511E0C0E4D1E004C0FE010E94430FC1
:0C2580002196C134D107C9F7F894FFCFB1
:10258C0000003402800000000000D007FE07F707AF
:10259C004A0A0E0C00000000CF07FB07F7070D0AD4
:1025AC00620B000000001C04EB024E036604810366
:1025BC005F0373030D0A006E616E00696E66006F37
:1025CC00766600444854313100444854313200445A
:1025DC0048543231004448543232004448543F008D
:00000001FF
